{
  "contractName": "RockPaperScissors",
  "abi": [
    {
      "inputs": [],
      "name": "clearMove1",
      "outputs": [
        {
          "internalType": "string",
          "name": "",
          "type": "string"
        }
      ],
      "stateMutability": "view",
      "type": "function"
    },
    {
      "inputs": [],
      "name": "clearMove2",
      "outputs": [
        {
          "internalType": "string",
          "name": "",
          "type": "string"
        }
      ],
      "stateMutability": "view",
      "type": "function"
    },
    {
      "inputs": [],
      "name": "contractBalance",
      "outputs": [
        {
          "internalType": "uint256",
          "name": "",
          "type": "uint256"
        }
      ],
      "stateMutability": "view",
      "type": "function"
    },
    {
      "inputs": [],
      "name": "hashedMove1",
      "outputs": [
        {
          "internalType": "bytes32",
          "name": "",
          "type": "bytes32"
        }
      ],
      "stateMutability": "view",
      "type": "function"
    },
    {
      "inputs": [],
      "name": "hashedMove2",
      "outputs": [
        {
          "internalType": "bytes32",
          "name": "",
          "type": "bytes32"
        }
      ],
      "stateMutability": "view",
      "type": "function"
    },
    {
      "inputs": [],
      "name": "minBet",
      "outputs": [
        {
          "internalType": "uint256",
          "name": "",
          "type": "uint256"
        }
      ],
      "stateMutability": "view",
      "type": "function"
    },
    {
      "inputs": [],
      "name": "player1",
      "outputs": [
        {
          "internalType": "address",
          "name": "",
          "type": "address"
        }
      ],
      "stateMutability": "view",
      "type": "function"
    },
    {
      "inputs": [],
      "name": "player2",
      "outputs": [
        {
          "internalType": "address",
          "name": "",
          "type": "address"
        }
      ],
      "stateMutability": "view",
      "type": "function"
    },
    {
      "inputs": [],
      "name": "revealStartTime",
      "outputs": [
        {
          "internalType": "uint256",
          "name": "",
          "type": "uint256"
        }
      ],
      "stateMutability": "view",
      "type": "function"
    },
    {
      "inputs": [],
      "name": "revealTimeout",
      "outputs": [
        {
          "internalType": "uint256",
          "name": "",
          "type": "uint256"
        }
      ],
      "stateMutability": "view",
      "type": "function"
    },
    {
      "inputs": [],
      "name": "register",
      "outputs": [],
      "stateMutability": "payable",
      "type": "function"
    },
    {
      "inputs": [
        {
          "internalType": "bytes32",
          "name": "_hashedMove",
          "type": "bytes32"
        }
      ],
      "name": "play",
      "outputs": [],
      "stateMutability": "nonpayable",
      "type": "function"
    },
    {
      "inputs": [
        {
          "internalType": "string",
          "name": "_clearMove",
          "type": "string"
        }
      ],
      "name": "reveal",
      "outputs": [],
      "stateMutability": "nonpayable",
      "type": "function"
    },
    {
      "inputs": [],
      "name": "getOutcome",
      "outputs": [],
      "stateMutability": "nonpayable",
      "type": "function"
    },
    {
      "inputs": [],
      "name": "startRevealPhase",
      "outputs": [],
      "stateMutability": "nonpayable",
      "type": "function"
    },
    {
      "inputs": [],
      "name": "getContractBalance",
      "outputs": [
        {
          "internalType": "uint256",
          "name": "",
          "type": "uint256"
        }
      ],
      "stateMutability": "view",
      "type": "function"
    },
    {
      "inputs": [],
      "name": "whoAmI",
      "outputs": [
        {
          "internalType": "uint256",
          "name": "",
          "type": "uint256"
        }
      ],
      "stateMutability": "view",
      "type": "function"
    }
  ],
  "bytecode": "0x6080604052655af3107a4000600255603c60085534801561001e575f80fd5b506120248061002c5f395ff3fe6080604052600436106100fd575f3560e01c80639619367d11610094578063cc0bef8411610063578063cc0bef84146102ad578063d30895e4146102d7578063da91254c14610301578063dbbfd6d81461032b578063e0942eee14610355576100fd565b80639619367d1461021b578063ac8f5c1a14610245578063c6fd5d4e1461026f578063c7a1865b14610285576100fd565b80636f9fb98a116100d05780636f9fb98a146101875780637e7e4b47146101b157806382556b00146101c75780638b7afe2e146101f1576100fd565b80631aa3a008146101015780634376cb341461010b5780634c2612471461013557806359a5f12d1461015d575b5f80fd5b61010961037f565b005b348015610116575f80fd5b5061011f6105d6565b60405161012c919061133a565b60405180910390f35b348015610140575f80fd5b5061015b600480360381019061015691906114a0565b6105dc565b005b348015610168575f80fd5b5061017161086e565b60405161017e9190611526565b60405180910390f35b348015610192575f80fd5b5061019b610893565b6040516101a8919061133a565b60405180910390f35b3480156101bc575f80fd5b506101c561089c565b005b3480156101d2575f80fd5b506101db610cb6565b6040516101e89190611557565b60405180910390f35b3480156101fc575f80fd5b50610205610cbc565b604051610212919061133a565b60405180910390f35b348015610226575f80fd5b5061022f610cc2565b60405161023c919061133a565b60405180910390f35b348015610250575f80fd5b50610259610cc8565b60405161026691906115ea565b60405180910390f35b34801561027a575f80fd5b50610283610d54565b005b348015610290575f80fd5b506102ab60048036038101906102a69190611634565b610eef565b005b3480156102b8575f80fd5b506102c16110c9565b6040516102ce919061133a565b60405180910390f35b3480156102e2575f80fd5b506102eb6110cf565b6040516102f89190611526565b60405180910390f35b34801561030c575f80fd5b506103156110f2565b604051610322919061133a565b60405180910390f35b348015610336575f80fd5b5061033f6111b3565b60405161034c9190611557565b60405180910390f35b348015610360575f80fd5b506103696111b9565b60405161037691906115ea565b60405180910390f35b6002543410156103c4576040517f08c379a00000000000000000000000000000000000000000000000000000000081526004016103bb906116a9565b60405180910390fd5b5f73ffffffffffffffffffffffffffffffffffffffff165f8054906101000a900473ffffffffffffffffffffffffffffffffffffffff1673ffffffffffffffffffffffffffffffffffffffff160361045a57335f806101000a81548173ffffffffffffffffffffffffffffffffffffffff021916908373ffffffffffffffffffffffffffffffffffffffff1602179055506105bc565b5f73ffffffffffffffffffffffffffffffffffffffff1660015f9054906101000a900473ffffffffffffffffffffffffffffffffffffffff1673ffffffffffffffffffffffffffffffffffffffff1603610580575f8054906101000a900473ffffffffffffffffffffffffffffffffffffffff1673ffffffffffffffffffffffffffffffffffffffff163373ffffffffffffffffffffffffffffffffffffffff160361053b576040517f08c379a000000000000000000000000000000000000000000000000000000000815260040161053290611737565b60405180910390fd5b3360015f6101000a81548173ffffffffffffffffffffffffffffffffffffffff021916908373ffffffffffffffffffffffffffffffffffffffff1602179055506105bb565b6040517f08c379a00000000000000000000000000000000000000000000000000000000081526004016105b2906117c5565b60405180910390fd5b5b3460035f8282546105cd9190611810565b92505081905550565b60085481565b5f8054906101000a900473ffffffffffffffffffffffffffffffffffffffff1673ffffffffffffffffffffffffffffffffffffffff163373ffffffffffffffffffffffffffffffffffffffff16148015610682575060015f9054906101000a900473ffffffffffffffffffffffffffffffffffffffff1673ffffffffffffffffffffffffffffffffffffffff163373ffffffffffffffffffffffffffffffffffffffff16145b6106c1576040517f08c379a00000000000000000000000000000000000000000000000000000000081526004016106b89061188d565b60405180910390fd5b600954421180156106e057506008546009546106dd9190611810565b42105b61071f576040517f08c379a0000000000000000000000000000000000000000000000000000000008152600401610716906118f5565b60405180910390fd5b5f8054906101000a900473ffffffffffffffffffffffffffffffffffffffff1673ffffffffffffffffffffffffffffffffffffffff163373ffffffffffffffffffffffffffffffffffffffff16036107f05760045481604051602001610785919061194d565b60405160208183030381529060405280519060200120146107db576040517f08c379a00000000000000000000000000000000000000000000000000000000081526004016107d2906119ad565b60405180910390fd5b80600690816107ea9190611bc5565b5061086b565b60055481604051602001610804919061194d565b604051602081830303815290604052805190602001201461085a576040517f08c379a0000000000000000000000000000000000000000000000000000000008152600401610851906119ad565b60405180910390fd5b80600790816108699190611bc5565b505b50565b60015f9054906101000a900473ffffffffffffffffffffffffffffffffffffffff1681565b5f600354905090565b5f8054906101000a900473ffffffffffffffffffffffffffffffffffffffff1673ffffffffffffffffffffffffffffffffffffffff163373ffffffffffffffffffffffffffffffffffffffff16148015610942575060015f9054906101000a900473ffffffffffffffffffffffffffffffffffffffff1673ffffffffffffffffffffffffffffffffffffffff163373ffffffffffffffffffffffffffffffffffffffff16145b610981576040517f08c379a00000000000000000000000000000000000000000000000000000000081526004016109789061188d565b60405180910390fd5b5f6006805461098f906119f8565b90501180156109ab57505f600780546109a7906119f8565b9050115b6109ea576040517f08c379a00000000000000000000000000000000000000000000000000000000081526004016109e190611cde565b60405180910390fd5b60095442118015610a095750600854600954610a069190611810565b42105b610a48576040517f08c379a0000000000000000000000000000000000000000000000000000000008152600401610a3f906118f5565b60405180910390fd5b6007604051602001610a5a9190611d7c565b604051602081830303815290604052805190602001206006604051602001610a829190611d7c565b6040516020818303038152906040528051906020012003610ad8576040517f08c379a0000000000000000000000000000000000000000000000000000000008152600401610acf90611ddc565b60405180910390fd5b604051602001610ae790611e44565b604051602081830303815290604052805190602001206006604051602001610b0f9190611d7c565b60405160208183030381529060405280519060200120148015610b7c5750604051602001610b3c90611ea2565b604051602081830303815290604052805190602001206007604051602001610b649190611d7c565b60405160208183030381529060405280519060200120145b15610bcc573373ffffffffffffffffffffffffffffffffffffffff166108fc60035490811502906040515f60405180830381858888f19350505050158015610bc6573d5f803e3d5ffd5b50610cac565b5f8054906101000a900473ffffffffffffffffffffffffffffffffffffffff1673ffffffffffffffffffffffffffffffffffffffff163373ffffffffffffffffffffffffffffffffffffffff1614610c43575f8054906101000a900473ffffffffffffffffffffffffffffffffffffffff16610c66565b60015f9054906101000a900473ffffffffffffffffffffffffffffffffffffffff165b73ffffffffffffffffffffffffffffffffffffffff166108fc60035490811502906040515f60405180830381858888f19350505050158015610caa573d5f803e3d5ffd5b505b610cb4611245565b565b60045481565b60035481565b60025481565b60078054610cd5906119f8565b80601f0160208091040260200160405190810160405280929190818152602001828054610d01906119f8565b8015610d4c5780601f10610d2357610100808354040283529160200191610d4c565b820191905f5260205f20905b815481529060010190602001808311610d2f57829003601f168201915b505050505081565b5f8054906101000a900473ffffffffffffffffffffffffffffffffffffffff1673ffffffffffffffffffffffffffffffffffffffff163373ffffffffffffffffffffffffffffffffffffffff16148015610dfa575060015f9054906101000a900473ffffffffffffffffffffffffffffffffffffffff1673ffffffffffffffffffffffffffffffffffffffff163373ffffffffffffffffffffffffffffffffffffffff16145b610e39576040517f08c379a0000000000000000000000000000000000000000000000000000000008152600401610e309061188d565b60405180910390fd5b5f60068054610e47906119f8565b9050118015610e6357505f60078054610e5f906119f8565b9050115b610ea2576040517f08c379a0000000000000000000000000000000000000000000000000000000008152600401610e9990611cde565b60405180910390fd5b5f60095414610ee6576040517f08c379a0000000000000000000000000000000000000000000000000000000008152600401610edd90611f00565b60405180910390fd5b42600981905550565b5f8054906101000a900473ffffffffffffffffffffffffffffffffffffffff1673ffffffffffffffffffffffffffffffffffffffff163373ffffffffffffffffffffffffffffffffffffffff16148015610f95575060015f9054906101000a900473ffffffffffffffffffffffffffffffffffffffff1673ffffffffffffffffffffffffffffffffffffffff163373ffffffffffffffffffffffffffffffffffffffff16145b610fd4576040517f08c379a0000000000000000000000000000000000000000000000000000000008152600401610fcb9061188d565b60405180910390fd5b5f8054906101000a900473ffffffffffffffffffffffffffffffffffffffff1673ffffffffffffffffffffffffffffffffffffffff163373ffffffffffffffffffffffffffffffffffffffff1603611078575f801b6004541461106c576040517f08c379a000000000000000000000000000000000000000000000000000000000815260040161106390611f68565b60405180910390fd5b806004819055506110c6565b5f801b600554146110be576040517f08c379a00000000000000000000000000000000000000000000000000000000081526004016110b590611fd0565b60405180910390fd5b806005819055505b50565b60095481565b5f8054906101000a900473ffffffffffffffffffffffffffffffffffffffff1681565b5f805f9054906101000a900473ffffffffffffffffffffffffffffffffffffffff1673ffffffffffffffffffffffffffffffffffffffff163373ffffffffffffffffffffffffffffffffffffffff160361114f57600190506111b0565b60015f9054906101000a900473ffffffffffffffffffffffffffffffffffffffff1673ffffffffffffffffffffffffffffffffffffffff163373ffffffffffffffffffffffffffffffffffffffff16036111ac57600290506111b0565b5f90505b90565b60055481565b600680546111c6906119f8565b80601f01602080910402602001604051908101604052809291908181526020018280546111f2906119f8565b801561123d5780601f106112145761010080835404028352916020019161123d565b820191905f5260205f20905b81548152906001019060200180831161122057829003601f168201915b505050505081565b5f805f6101000a81548173ffffffffffffffffffffffffffffffffffffffff021916908373ffffffffffffffffffffffffffffffffffffffff1602179055505f60015f6101000a81548173ffffffffffffffffffffffffffffffffffffffff021916908373ffffffffffffffffffffffffffffffffffffffff1602179055505f801b6004819055505f801b60058190555060405180602001604052805f815250600690816112f39190611bc5565b5060405180602001604052805f815250600790816113119190611bc5565b505f6003819055505f600981905550565b5f819050919050565b61133481611322565b82525050565b5f60208201905061134d5f83018461132b565b92915050565b5f604051905090565b5f80fd5b5f80fd5b5f80fd5b5f80fd5b5f601f19601f8301169050919050565b7f4e487b71000000000000000000000000000000000000000000000000000000005f52604160045260245ffd5b6113b28261136c565b810181811067ffffffffffffffff821117156113d1576113d061137c565b5b80604052505050565b5f6113e3611353565b90506113ef82826113a9565b919050565b5f67ffffffffffffffff82111561140e5761140d61137c565b5b6114178261136c565b9050602081019050919050565b828183375f83830152505050565b5f61144461143f846113f4565b6113da565b9050828152602081018484840111156114605761145f611368565b5b61146b848285611424565b509392505050565b5f82601f83011261148757611486611364565b5b8135611497848260208601611432565b91505092915050565b5f602082840312156114b5576114b461135c565b5b5f82013567ffffffffffffffff8111156114d2576114d1611360565b5b6114de84828501611473565b91505092915050565b5f73ffffffffffffffffffffffffffffffffffffffff82169050919050565b5f611510826114e7565b9050919050565b61152081611506565b82525050565b5f6020820190506115395f830184611517565b92915050565b5f819050919050565b6115518161153f565b82525050565b5f60208201905061156a5f830184611548565b92915050565b5f81519050919050565b5f82825260208201905092915050565b5f5b838110156115a757808201518184015260208101905061158c565b5f8484015250505050565b5f6115bc82611570565b6115c6818561157a565b93506115d681856020860161158a565b6115df8161136c565b840191505092915050565b5f6020820190508181035f83015261160281846115b2565b905092915050565b6116138161153f565b811461161d575f80fd5b50565b5f8135905061162e8161160a565b92915050565b5f602082840312156116495761164861135c565b5b5f61165684828501611620565b91505092915050565b7f496e73756666696369656e742066756e647300000000000000000000000000005f82015250565b5f61169360128361157a565b915061169e8261165f565b602082019050919050565b5f6020820190508181035f8301526116c081611687565b9050919050565b7f506c61796572203120616e6420506c617965722032206d7573742062652064695f8201527f66666572656e7400000000000000000000000000000000000000000000000000602082015250565b5f61172160278361157a565b915061172c826116c7565b604082019050919050565b5f6020820190508181035f83015261174e81611715565b9050919050565b7f426f746820706c61796572732061726520616c726561647920726567697374655f8201527f7265640000000000000000000000000000000000000000000000000000000000602082015250565b5f6117af60238361157a565b91506117ba82611755565b604082019050919050565b5f6020820190508181035f8301526117dc816117a3565b9050919050565b7f4e487b71000000000000000000000000000000000000000000000000000000005f52601160045260245ffd5b5f61181a82611322565b915061182583611322565b925082820190508082111561183d5761183c6117e3565b5b92915050565b7f4e6f7420726567697374657265640000000000000000000000000000000000005f82015250565b5f611877600e8361157a565b915061188282611843565b602082019050919050565b5f6020820190508181035f8301526118a48161186b565b9050919050565b7f4e6f7420696e2072657665616c207068617365000000000000000000000000005f82015250565b5f6118df60138361157a565b91506118ea826118ab565b602082019050919050565b5f6020820190508181035f83015261190c816118d3565b9050919050565b5f81905092915050565b5f61192782611570565b6119318185611913565b935061194181856020860161158a565b80840191505092915050565b5f611958828461191d565b915081905092915050565b7f496e76616c6964206d6f7665206f722070617373776f726400000000000000005f82015250565b5f61199760188361157a565b91506119a282611963565b602082019050919050565b5f6020820190508181035f8301526119c48161198b565b9050919050565b7f4e487b71000000000000000000000000000000000000000000000000000000005f52602260045260245ffd5b5f6002820490506001821680611a0f57607f821691505b602082108103611a2257611a216119cb565b5b50919050565b5f819050815f5260205f209050919050565b5f6020601f8301049050919050565b5f82821b905092915050565b5f60088302611a847fffffffffffffffffffffffffffffffffffffffffffffffffffffffffffffffff82611a49565b611a8e8683611a49565b95508019841693508086168417925050509392505050565b5f819050919050565b5f611ac9611ac4611abf84611322565b611aa6565b611322565b9050919050565b5f819050919050565b611ae283611aaf565b611af6611aee82611ad0565b848454611a55565b825550505050565b5f90565b611b0a611afe565b611b15818484611ad9565b505050565b5b81811015611b3857611b2d5f82611b02565b600181019050611b1b565b5050565b601f821115611b7d57611b4e81611a28565b611b5784611a3a565b81016020851015611b66578190505b611b7a611b7285611a3a565b830182611b1a565b50505b505050565b5f82821c905092915050565b5f611b9d5f1984600802611b82565b1980831691505092915050565b5f611bb58383611b8e565b9150826002028217905092915050565b611bce82611570565b67ffffffffffffffff811115611be757611be661137c565b5b611bf182546119f8565b611bfc828285611b3c565b5f60209050601f831160018114611c2d575f8415611c1b578287015190505b611c258582611baa565b865550611c8c565b601f198416611c3b86611a28565b5f5b82811015611c6257848901518255600182019150602085019450602081019050611c3d565b86831015611c7f5784890151611c7b601f891682611b8e565b8355505b6001600288020188555050505b505050505050565b7f426f746820706c6179657273206d75737420706c6179000000000000000000005f82015250565b5f611cc860168361157a565b9150611cd382611c94565b602082019050919050565b5f6020820190508181035f830152611cf581611cbc565b9050919050565b5f8154611d08816119f8565b611d128186611913565b9450600182165f8114611d2c5760018114611d4157611d73565b60ff1983168652811515820286019350611d73565b611d4a85611a28565b5f5b83811015611d6b57815481890152600182019150602081019050611d4c565b838801955050505b50505092915050565b5f611d878284611cfc565b915081905092915050565b7f49742773206120647261770000000000000000000000000000000000000000005f82015250565b5f611dc6600b8361157a565b9150611dd182611d92565b602082019050919050565b5f6020820190508181035f830152611df381611dba565b9050919050565b7f526f636b000000000000000000000000000000000000000000000000000000005f82015250565b5f611e2e600483611913565b9150611e3982611dfa565b600482019050919050565b5f611e4e82611e22565b9150819050919050565b7f53636973736f72730000000000000000000000000000000000000000000000005f82015250565b5f611e8c600883611913565b9150611e9782611e58565b600882019050919050565b5f611eac82611e80565b9150819050919050565b7f52657665616c20706861736520616c72656164792073746172746564000000005f82015250565b5f611eea601c8361157a565b9150611ef582611eb6565b602082019050919050565b5f6020820190508181035f830152611f1781611ede565b9050919050565b7f506c6179657220312068617320616c726561647920706c6179656400000000005f82015250565b5f611f52601b8361157a565b9150611f5d82611f1e565b602082019050919050565b5f6020820190508181035f830152611f7f81611f46565b9050919050565b7f506c6179657220322068617320616c726561647920706c6179656400000000005f82015250565b5f611fba601b8361157a565b9150611fc582611f86565b602082019050919050565b5f6020820190508181035f830152611fe781611fae565b905091905056fea2646970667358221220bc30e582cd541aa331b1c979e1c0eaa1b16b3f028ffdce7e9cad7e2e1486d20f64736f6c63430008150033",
  "immutableReferences": {},
  "source": "// SPDX-License-Identifier: MIT\r\npragma solidity ^0.8.0;\r\n\r\ncontract RockPaperScissors {\r\n    address public player1;\r\n    address public player2;\r\n    uint256 public minBet = 0.0001 ether;\r\n    uint256 public contractBalance;\r\n    bytes32 public hashedMove1;\r\n    bytes32 public hashedMove2;\r\n    string public clearMove1;\r\n    string public clearMove2;\r\n    uint256 public revealTimeout = 60; // in seconds\r\n    uint256 public revealStartTime;\r\n\r\n    modifier onlyRegistered() {\r\n        require(msg.sender == player1 && msg.sender == player2, \"Not registered\");\r\n        _;\r\n    }\r\n\r\n    modifier bothPlayersPlayed() {\r\n        require(bytes(clearMove1).length > 0 && bytes(clearMove2).length > 0, \"Both players must play\");\r\n        _;\r\n    }\r\n\r\n    modifier revealPhase() {\r\n        require(block.timestamp > revealStartTime && block.timestamp < revealStartTime + revealTimeout, \"Not in reveal phase\");\r\n        _;\r\n    }\r\n\r\n    function register() external payable {\r\n        require(msg.value >= minBet, \"Insufficient funds\");\r\n        if (player1 == address(0)) {\r\n            player1 = msg.sender;\r\n        } else if (player2 == address(0)) {\r\n            require(msg.sender != player1, \"Player 1 and Player 2 must be different\");\r\n            player2 = msg.sender;\r\n        } else {\r\n            revert(\"Both players are already registered\");\r\n        }\r\n        contractBalance += msg.value;\r\n    }\r\n\r\n    function play(bytes32 _hashedMove) external onlyRegistered {\r\n        if (msg.sender == player1) {\r\n            require(hashedMove1 == bytes32(0), \"Player 1 has already played\");\r\n            hashedMove1 = _hashedMove;\r\n        } else {\r\n            require(hashedMove2 == bytes32(0), \"Player 2 has already played\");\r\n            hashedMove2 = _hashedMove;\r\n        }\r\n    }\r\n\r\n    function reveal(string memory _clearMove) external onlyRegistered revealPhase {\r\n        if (msg.sender == player1) {\r\n            require(keccak256(abi.encodePacked(_clearMove)) == hashedMove1, \"Invalid move or password\");\r\n            clearMove1 = _clearMove;\r\n        } else {\r\n            require(keccak256(abi.encodePacked(_clearMove)) == hashedMove2, \"Invalid move or password\");\r\n            clearMove2 = _clearMove;\r\n        }\r\n    }\r\n\r\n    function getOutcome() external onlyRegistered bothPlayersPlayed revealPhase {\r\n        require(keccak256(abi.encodePacked(clearMove1)) != keccak256(abi.encodePacked(clearMove2)), \"It's a draw\");\r\n\r\n        if (\r\n            keccak256(abi.encodePacked(clearMove1)) == keccak256(abi.encodePacked(\"Rock\")) && keccak256(abi.encodePacked(clearMove2)) == keccak256(abi.encodePacked(\"Scissors\")) \r\n            ) {\r\n            payable(msg.sender).transfer(contractBalance);\r\n        } else {\r\n            payable((msg.sender == player1) ? player2 : player1).transfer(contractBalance);\r\n        }\r\n\r\n        // Reset the game\r\n        resetGame();\r\n    }\r\n\r\n    function resetGame() internal {\r\n        player1 = address(0);\r\n        player2 = address(0);\r\n        hashedMove1 = bytes32(0);\r\n        hashedMove2 = bytes32(0);\r\n        clearMove1 = \"\";\r\n        clearMove2 = \"\";\r\n        contractBalance = 0;\r\n        revealStartTime = 0;\r\n    }\r\n\r\n    function startRevealPhase() external onlyRegistered bothPlayersPlayed {\r\n        require(revealStartTime == 0, \"Reveal phase already started\");\r\n        revealStartTime = block.timestamp;\r\n    }\r\n\r\n    function getContractBalance() external view returns (uint256) {\r\n        return contractBalance;\r\n    }\r\n\r\n    function whoAmI() external view returns (uint256) {\r\n        if (msg.sender == player1) {\r\n            return 1;\r\n        } else if (msg.sender == player2) {\r\n            return 2;\r\n        } else {\r\n            return 0;\r\n        }\r\n    }\r\n\r\n}",
  "sourcePath": "C:\\Users\\zmeyr\\Desktop\\rts\\contracts\\app.sol",
  "compiler": {
    "name": "solc",
    "version": "0.8.21+commit.d9974bed.Emscripten.clang"
  },
  "schemaVersion": "3.4.16",
  "updatedAt": "2023-10-05T19:53:35.579Z",
  "devdoc": {
    "kind": "dev",
    "methods": {},
    "version": 1
  },
  "userdoc": {
    "kind": "user",
    "methods": {},
    "version": 1
  }
}